{
  "_format": "hh-sol-artifact-1",
  "contractName": "LandRegistration",
  "sourceName": "SmartContract/LandRegistration.sol",
  "abi": [
    {
      "inputs": [],
      "stateMutability": "payable",
      "type": "constructor"
    },
    {
      "inputs": [
        {
          "internalType": "uint256",
          "name": "_LandID",
          "type": "uint256"
        }
      ],
      "name": "BuyLand",
      "outputs": [],
      "stateMutability": "payable",
      "type": "function"
    },
    {
      "inputs": [
        {
          "internalType": "address",
          "name": "",
          "type": "address"
        }
      ],
      "name": "BuyerDetails",
      "outputs": [
        {
          "internalType": "string",
          "name": "Name",
          "type": "string"
        },
        {
          "internalType": "uint256",
          "name": "Age",
          "type": "uint256"
        },
        {
          "internalType": "string",
          "name": "City",
          "type": "string"
        },
        {
          "internalType": "string",
          "name": "CNIC",
          "type": "string"
        },
        {
          "internalType": "string",
          "name": "Email",
          "type": "string"
        }
      ],
      "stateMutability": "view",
      "type": "function"
    },
    {
      "inputs": [
        {
          "internalType": "uint256",
          "name": "ID",
          "type": "uint256"
        }
      ],
      "name": "GetLandArea",
      "outputs": [
        {
          "internalType": "string",
          "name": "",
          "type": "string"
        }
      ],
      "stateMutability": "view",
      "type": "function"
    },
    {
      "inputs": [
        {
          "internalType": "uint256",
          "name": "ID",
          "type": "uint256"
        }
      ],
      "name": "GetLandCity",
      "outputs": [
        {
          "internalType": "string",
          "name": "",
          "type": "string"
        }
      ],
      "stateMutability": "view",
      "type": "function"
    },
    {
      "inputs": [
        {
          "internalType": "uint256",
          "name": "ID",
          "type": "uint256"
        }
      ],
      "name": "GetLandDetails",
      "outputs": [
        {
          "internalType": "string",
          "name": "",
          "type": "string"
        },
        {
          "internalType": "string",
          "name": "",
          "type": "string"
        },
        {
          "internalType": "string",
          "name": "",
          "type": "string"
        },
        {
          "internalType": "uint256",
          "name": "",
          "type": "uint256"
        },
        {
          "internalType": "uint256",
          "name": "",
          "type": "uint256"
        }
      ],
      "stateMutability": "view",
      "type": "function"
    },
    {
      "inputs": [
        {
          "internalType": "uint256",
          "name": "_LandID",
          "type": "uint256"
        }
      ],
      "name": "GetLandOwner",
      "outputs": [
        {
          "internalType": "address",
          "name": "",
          "type": "address"
        }
      ],
      "stateMutability": "view",
      "type": "function"
    },
    {
      "inputs": [
        {
          "internalType": "uint256",
          "name": "ID",
          "type": "uint256"
        }
      ],
      "name": "GetLandPrice",
      "outputs": [
        {
          "internalType": "uint256",
          "name": "",
          "type": "uint256"
        }
      ],
      "stateMutability": "view",
      "type": "function"
    },
    {
      "inputs": [
        {
          "internalType": "address",
          "name": "",
          "type": "address"
        }
      ],
      "name": "IsBuyerVerify",
      "outputs": [
        {
          "internalType": "bool",
          "name": "",
          "type": "bool"
        }
      ],
      "stateMutability": "view",
      "type": "function"
    },
    {
      "inputs": [
        {
          "internalType": "uint256",
          "name": "",
          "type": "uint256"
        }
      ],
      "name": "IsLandVerify",
      "outputs": [
        {
          "internalType": "bool",
          "name": "",
          "type": "bool"
        }
      ],
      "stateMutability": "view",
      "type": "function"
    },
    {
      "inputs": [
        {
          "internalType": "address",
          "name": "",
          "type": "address"
        }
      ],
      "name": "IsSellerVerify",
      "outputs": [
        {
          "internalType": "bool",
          "name": "",
          "type": "bool"
        }
      ],
      "stateMutability": "view",
      "type": "function"
    },
    {
      "inputs": [
        {
          "internalType": "uint256",
          "name": "",
          "type": "uint256"
        }
      ],
      "name": "LandDetails",
      "outputs": [
        {
          "internalType": "string",
          "name": "Area",
          "type": "string"
        },
        {
          "internalType": "string",
          "name": "City",
          "type": "string"
        },
        {
          "internalType": "string",
          "name": "State",
          "type": "string"
        },
        {
          "internalType": "uint256",
          "name": "LandPriceInWei",
          "type": "uint256"
        },
        {
          "internalType": "uint256",
          "name": "PropertyPID",
          "type": "uint256"
        },
        {
          "internalType": "address",
          "name": "Owner",
          "type": "address"
        }
      ],
      "stateMutability": "view",
      "type": "function"
    },
    {
      "inputs": [],
      "name": "LandInspector",
      "outputs": [
        {
          "internalType": "address",
          "name": "",
          "type": "address"
        }
      ],
      "stateMutability": "view",
      "type": "function"
    },
    {
      "inputs": [
        {
          "internalType": "address",
          "name": "",
          "type": "address"
        }
      ],
      "name": "LandInspectorDetails",
      "outputs": [
        {
          "internalType": "address",
          "name": "ID",
          "type": "address"
        },
        {
          "internalType": "string",
          "name": "Name",
          "type": "string"
        },
        {
          "internalType": "uint256",
          "name": "Age",
          "type": "uint256"
        },
        {
          "internalType": "string",
          "name": "Designation",
          "type": "string"
        }
      ],
      "stateMutability": "view",
      "type": "function"
    },
    {
      "inputs": [
        {
          "internalType": "address",
          "name": "addr",
          "type": "address"
        },
        {
          "internalType": "string",
          "name": "NAME",
          "type": "string"
        },
        {
          "internalType": "uint256",
          "name": "AGE",
          "type": "uint256"
        },
        {
          "internalType": "string",
          "name": "CITY",
          "type": "string"
        },
        {
          "internalType": "string",
          "name": "CNIC",
          "type": "string"
        },
        {
          "internalType": "string",
          "name": "Email",
          "type": "string"
        }
      ],
      "name": "RegisterBuyer",
      "outputs": [],
      "stateMutability": "nonpayable",
      "type": "function"
    },
    {
      "inputs": [
        {
          "internalType": "uint256",
          "name": "_LandID",
          "type": "uint256"
        },
        {
          "internalType": "string",
          "name": "Area",
          "type": "string"
        },
        {
          "internalType": "string",
          "name": "City",
          "type": "string"
        },
        {
          "internalType": "string",
          "name": "State",
          "type": "string"
        },
        {
          "internalType": "uint256",
          "name": "LandPriceInWei",
          "type": "uint256"
        },
        {
          "internalType": "uint256",
          "name": "PropertyPID",
          "type": "uint256"
        },
        {
          "internalType": "address",
          "name": "",
          "type": "address"
        }
      ],
      "name": "RegisterLand",
      "outputs": [],
      "stateMutability": "nonpayable",
      "type": "function"
    },
    {
      "inputs": [
        {
          "internalType": "address",
          "name": "ID",
          "type": "address"
        },
        {
          "internalType": "string",
          "name": "NAME",
          "type": "string"
        },
        {
          "internalType": "uint256",
          "name": "AGE",
          "type": "uint256"
        },
        {
          "internalType": "string",
          "name": "Designation",
          "type": "string"
        }
      ],
      "name": "RegisterLandInspector",
      "outputs": [],
      "stateMutability": "nonpayable",
      "type": "function"
    },
    {
      "inputs": [
        {
          "internalType": "address",
          "name": "",
          "type": "address"
        },
        {
          "internalType": "string",
          "name": "NAME",
          "type": "string"
        },
        {
          "internalType": "uint256",
          "name": "AGE",
          "type": "uint256"
        },
        {
          "internalType": "string",
          "name": "CITY",
          "type": "string"
        },
        {
          "internalType": "string",
          "name": "CNIC",
          "type": "string"
        },
        {
          "internalType": "string",
          "name": "Email",
          "type": "string"
        }
      ],
      "name": "RegisterSeller",
      "outputs": [],
      "stateMutability": "nonpayable",
      "type": "function"
    },
    {
      "inputs": [
        {
          "internalType": "address",
          "name": "addr",
          "type": "address"
        }
      ],
      "name": "RejectBuyer",
      "outputs": [],
      "stateMutability": "nonpayable",
      "type": "function"
    },
    {
      "inputs": [
        {
          "internalType": "uint256",
          "name": "_LandID",
          "type": "uint256"
        }
      ],
      "name": "RejectLand",
      "outputs": [],
      "stateMutability": "nonpayable",
      "type": "function"
    },
    {
      "inputs": [
        {
          "internalType": "address",
          "name": "add",
          "type": "address"
        }
      ],
      "name": "RejectSeller",
      "outputs": [],
      "stateMutability": "nonpayable",
      "type": "function"
    },
    {
      "inputs": [
        {
          "internalType": "address",
          "name": "",
          "type": "address"
        }
      ],
      "name": "SellerDetails",
      "outputs": [
        {
          "internalType": "string",
          "name": "Name",
          "type": "string"
        },
        {
          "internalType": "uint256",
          "name": "Age",
          "type": "uint256"
        },
        {
          "internalType": "string",
          "name": "City",
          "type": "string"
        },
        {
          "internalType": "string",
          "name": "CNIC",
          "type": "string"
        },
        {
          "internalType": "string",
          "name": "Email",
          "type": "string"
        }
      ],
      "stateMutability": "view",
      "type": "function"
    },
    {
      "inputs": [
        {
          "internalType": "uint256",
          "name": "_LandID",
          "type": "uint256"
        },
        {
          "internalType": "address",
          "name": "newOwner",
          "type": "address"
        }
      ],
      "name": "TransferLandOwnerShip",
      "outputs": [],
      "stateMutability": "nonpayable",
      "type": "function"
    },
    {
      "inputs": [
        {
          "internalType": "address",
          "name": "addr",
          "type": "address"
        },
        {
          "internalType": "string",
          "name": "Name_",
          "type": "string"
        },
        {
          "internalType": "uint256",
          "name": "Age_",
          "type": "uint256"
        },
        {
          "internalType": "string",
          "name": "City_",
          "type": "string"
        },
        {
          "internalType": "string",
          "name": "CNIC_",
          "type": "string"
        },
        {
          "internalType": "string",
          "name": "Email_",
          "type": "string"
        }
      ],
      "name": "UpdateBuyer",
      "outputs": [],
      "stateMutability": "nonpayable",
      "type": "function"
    },
    {
      "inputs": [
        {
          "internalType": "address",
          "name": "addr",
          "type": "address"
        },
        {
          "internalType": "string",
          "name": "Name_",
          "type": "string"
        },
        {
          "internalType": "uint256",
          "name": "Age_",
          "type": "uint256"
        },
        {
          "internalType": "string",
          "name": "City_",
          "type": "string"
        },
        {
          "internalType": "string",
          "name": "CNIC_",
          "type": "string"
        },
        {
          "internalType": "string",
          "name": "Email_",
          "type": "string"
        }
      ],
      "name": "UpdateSeller",
      "outputs": [],
      "stateMutability": "nonpayable",
      "type": "function"
    },
    {
      "inputs": [
        {
          "internalType": "address",
          "name": "addr",
          "type": "address"
        }
      ],
      "name": "VerifyBuyer",
      "outputs": [],
      "stateMutability": "nonpayable",
      "type": "function"
    },
    {
      "inputs": [
        {
          "internalType": "uint256",
          "name": "_LandID",
          "type": "uint256"
        }
      ],
      "name": "VerifyLand",
      "outputs": [],
      "stateMutability": "nonpayable",
      "type": "function"
    },
    {
      "inputs": [
        {
          "internalType": "address",
          "name": "add",
          "type": "address"
        }
      ],
      "name": "VerifySeller",
      "outputs": [],
      "stateMutability": "nonpayable",
      "type": "function"
    }
  ],
  "bytecode": "0x608060405233600760006101000a81548173ffffffffffffffffffffffffffffffffffffffff021916908373ffffffffffffffffffffffffffffffffffffffff160217905550612f48806100546000396000f3fe60806040526004361061019c5760003560e01c806378d1b8cb116100ec578063c5a455941161008a578063dc9d2cbc11610064578063dc9d2cbc14610633578063e91dfef01461065c578063ee4a6f6014610685578063fba9e075146106b05761019c565b8063c5a45594146105a1578063c8dad446146105ca578063d196513b1461060a5761019c565b8063a4eeb506116100c6578063a4eeb506146104a9578063a88d9c1a146104e6578063aa626f4414610523578063bc6b4bf0146105645761019c565b806378d1b8cb1461041a5780637d52de36146104435780638991d2d91461046c5761019c565b806340863d6d116101595780635b44529b116101335780635b44529b1461033a5780635daa57f41461037c57806366f7fec1146103bd57806371b3e1af146103fe5761019c565b806340863d6d146102ab578063594a8626146102d45780635a2eda7f146102fd5761019c565b806306230149146101a15780630a6dd5fa146101ca578063153a89fc146101f35780632170a7301461021c5780632fb7eb0f146102595780633ff1cb5d14610282575b600080fd5b3480156101ad57600080fd5b506101c860048036038101906101c391906126ca565b6106ed565b005b3480156101d657600080fd5b506101f160048036038101906101ec9190612525565b6107ac565b005b3480156101ff57600080fd5b5061021a6004803603810190610215919061272f565b610897565b005b34801561022857600080fd5b50610243600480360381019061023e91906126ca565b610a11565b6040516102509190612c05565b60405180910390f35b34801561026557600080fd5b50610280600480360381019061027b9190612525565b610a30565b005b34801561028e57600080fd5b506102a960048036038101906102a491906126ca565b610b1b565b005b3480156102b757600080fd5b506102d260048036038101906102cd91906125e1565b610bda565b005b3480156102e057600080fd5b506102fb60048036038101906102f6919061254e565b610d5c565b005b34801561030957600080fd5b50610324600480360381019061031f91906126ca565b610e88565b60405161033191906129d6565b60405180910390f35b34801561034657600080fd5b50610361600480360381019061035c91906126ca565b610f2f565b60405161037396959493929190612a60565b60405180910390f35b34801561038857600080fd5b506103a3600480360381019061039e91906126ca565b611123565b6040516103b49594939291906129f8565b60405180910390f35b3480156103c957600080fd5b506103e460048036038101906103df9190612525565b61134d565b6040516103f5959493929190612ad6565b60405180910390f35b610418600480360381019061041391906126ca565b6115a3565b005b34801561042657600080fd5b50610441600480360381019061043c9190612525565b6117c8565b005b34801561044f57600080fd5b5061046a60048036038101906104659190612525565b6118b3565b005b34801561047857600080fd5b50610493600480360381019061048e91906126ca565b61199e565b6040516104a091906129bb565b60405180910390f35b3480156104b557600080fd5b506104d060048036038101906104cb91906126ca565b6119be565b6040516104dd91906129d6565b60405180910390f35b3480156104f257600080fd5b5061050d60048036038101906105089190612525565b611a65565b60405161051a91906129bb565b60405180910390f35b34801561052f57600080fd5b5061054a60048036038101906105459190612525565b611a85565b60405161055b959493929190612ad6565b60405180910390f35b34801561057057600080fd5b5061058b600480360381019061058691906126ca565b611cdb565b604051610598919061294d565b60405180910390f35b3480156105ad57600080fd5b506105c860048036038101906105c391906125e1565b611d1a565b005b3480156105d657600080fd5b506105f160048036038101906105ec9190612525565b611ec5565b6040516106019493929190612968565b60405180910390f35b34801561061657600080fd5b50610631600480360381019061062c91906125e1565b612025565b005b34801561063f57600080fd5b5061065a600480360381019061065591906126f3565b6121d0565b005b34801561066857600080fd5b50610683600480360381019061067e91906125e1565b612228565b005b34801561069157600080fd5b5061069a6123aa565b6040516106a7919061294d565b60405180910390f35b3480156106bc57600080fd5b506106d760048036038101906106d29190612525565b6123d0565b6040516106e491906129bb565b60405180910390f35b600760009054906101000a900473ffffffffffffffffffffffffffffffffffffffff1673ffffffffffffffffffffffffffffffffffffffff163373ffffffffffffffffffffffffffffffffffffffff161461077d576040517f08c379a000000000000000000000000000000000000000000000000000000000815260040161077490612ba5565b60405180910390fd5b60006006600083815260200190815260200160002060006101000a81548160ff02191690831515021790555050565b600760009054906101000a900473ffffffffffffffffffffffffffffffffffffffff1673ffffffffffffffffffffffffffffffffffffffff163373ffffffffffffffffffffffffffffffffffffffff161461083c576040517f08c379a000000000000000000000000000000000000000000000000000000000815260040161083390612ba5565b60405180910390fd5b6001600460008373ffffffffffffffffffffffffffffffffffffffff1673ffffffffffffffffffffffffffffffffffffffff16815260200190815260200160002060006101000a81548160ff02191690831515021790555050565b6040518060c001604052808781526020018681526020018581526020018481526020018381526020013373ffffffffffffffffffffffffffffffffffffffff1681525060008089815260200190815260200160002060008201518160000190805190602001906109089291906123f0565b5060208201518160010190805190602001906109259291906123f0565b5060408201518160020190805190602001906109429291906123f0565b50606082015181600301556080820151816004015560a08201518160050160006101000a81548173ffffffffffffffffffffffffffffffffffffffff021916908373ffffffffffffffffffffffffffffffffffffffff160217905550905050600115156006600089815260200190815260200160002060009054906101000a900460ff16151514610a08576040517f08c379a00000000000000000000000000000000000000000000000000000000081526004016109ff90612b65565b60405180910390fd5b50505050505050565b6000806000838152602001908152602001600020600301549050919050565b600760009054906101000a900473ffffffffffffffffffffffffffffffffffffffff1673ffffffffffffffffffffffffffffffffffffffff163373ffffffffffffffffffffffffffffffffffffffff1614610ac0576040517f08c379a0000000000000000000000000000000000000000000000000000000008152600401610ab790612ba5565b60405180910390fd5b6000600560008373ffffffffffffffffffffffffffffffffffffffff1673ffffffffffffffffffffffffffffffffffffffff16815260200190815260200160002060006101000a81548160ff02191690831515021790555050565b600760009054906101000a900473ffffffffffffffffffffffffffffffffffffffff1673ffffffffffffffffffffffffffffffffffffffff163373ffffffffffffffffffffffffffffffffffffffff1614610bab576040517f08c379a0000000000000000000000000000000000000000000000000000000008152600401610ba290612ba5565b60405180910390fd5b60016006600083815260200190815260200160002060006101000a81548160ff02191690831515021790555050565b6040518060a0016040528086815260200185815260200184815260200183815260200182815250600260003373ffffffffffffffffffffffffffffffffffffffff1673ffffffffffffffffffffffffffffffffffffffff1681526020019081526020016000206000820151816000019080519060200190610c5c9291906123f0565b50602082015181600101556040820151816002019080519060200190610c839291906123f0565b506060820151816003019080519060200190610ca09291906123f0565b506080820151816004019080519060200190610cbd9291906123f0565b5090505060011515600560003373ffffffffffffffffffffffffffffffffffffffff1673ffffffffffffffffffffffffffffffffffffffff16815260200190815260200160002060009054906101000a900460ff16151514610d54576040517f08c379a0000000000000000000000000000000000000000000000000000000008152600401610d4b90612be5565b60405180910390fd5b505050505050565b60405180608001604052808573ffffffffffffffffffffffffffffffffffffffff1681526020018481526020018381526020018281525060036000600760009054906101000a900473ffffffffffffffffffffffffffffffffffffffff1673ffffffffffffffffffffffffffffffffffffffff1673ffffffffffffffffffffffffffffffffffffffff16815260200190815260200160002060008201518160000160006101000a81548173ffffffffffffffffffffffffffffffffffffffff021916908373ffffffffffffffffffffffffffffffffffffffff1602179055506020820151816001019080519060200190610e579291906123f0565b50604082015181600201556060820151816003019080519060200190610e7e9291906123f0565b5090505050505050565b60606000808381526020019081526020016000206001018054610eaa90612d1c565b80601f0160208091040260200160405190810160405280929190818152602001828054610ed690612d1c565b8015610f235780601f10610ef857610100808354040283529160200191610f23565b820191906000526020600020905b815481529060010190602001808311610f0657829003601f168201915b50505050509050919050565b6000602052806000526040600020600091509050806000018054610f5290612d1c565b80601f0160208091040260200160405190810160405280929190818152602001828054610f7e90612d1c565b8015610fcb5780601f10610fa057610100808354040283529160200191610fcb565b820191906000526020600020905b815481529060010190602001808311610fae57829003601f168201915b505050505090806001018054610fe090612d1c565b80601f016020809104026020016040519081016040528092919081815260200182805461100c90612d1c565b80156110595780601f1061102e57610100808354040283529160200191611059565b820191906000526020600020905b81548152906001019060200180831161103c57829003601f168201915b50505050509080600201805461106e90612d1c565b80601f016020809104026020016040519081016040528092919081815260200182805461109a90612d1c565b80156110e75780601f106110bc576101008083540402835291602001916110e7565b820191906000526020600020905b8154815290600101906020018083116110ca57829003601f168201915b5050505050908060030154908060040154908060050160009054906101000a900473ffffffffffffffffffffffffffffffffffffffff16905086565b60608060606000806000808781526020019081526020016000206000016000808881526020019081526020016000206001016000808981526020019081526020016000206002016000808a8152602001908152602001600020600301546000808b8152602001908152602001600020600401548480546111a290612d1c565b80601f01602080910402602001604051908101604052809291908181526020018280546111ce90612d1c565b801561121b5780601f106111f05761010080835404028352916020019161121b565b820191906000526020600020905b8154815290600101906020018083116111fe57829003601f168201915b5050505050945083805461122e90612d1c565b80601f016020809104026020016040519081016040528092919081815260200182805461125a90612d1c565b80156112a75780601f1061127c576101008083540402835291602001916112a7565b820191906000526020600020905b81548152906001019060200180831161128a57829003601f168201915b505050505093508280546112ba90612d1c565b80601f01602080910402602001604051908101604052809291908181526020018280546112e690612d1c565b80156113335780601f1061130857610100808354040283529160200191611333565b820191906000526020600020905b81548152906001019060200180831161131657829003601f168201915b505050505092509450945094509450945091939590929450565b600260205280600052604060002060009150905080600001805461137090612d1c565b80601f016020809104026020016040519081016040528092919081815260200182805461139c90612d1c565b80156113e95780601f106113be576101008083540402835291602001916113e9565b820191906000526020600020905b8154815290600101906020018083116113cc57829003601f168201915b50505050509080600101549080600201805461140490612d1c565b80601f016020809104026020016040519081016040528092919081815260200182805461143090612d1c565b801561147d5780601f106114525761010080835404028352916020019161147d565b820191906000526020600020905b81548152906001019060200180831161146057829003601f168201915b50505050509080600301805461149290612d1c565b80601f01602080910402602001604051908101604052809291908181526020018280546114be90612d1c565b801561150b5780601f106114e05761010080835404028352916020019161150b565b820191906000526020600020905b8154815290600101906020018083116114ee57829003601f168201915b50505050509080600401805461152090612d1c565b80601f016020809104026020016040519081016040528092919081815260200182805461154c90612d1c565b80156115995780601f1061156e57610100808354040283529160200191611599565b820191906000526020600020905b81548152906001019060200180831161157c57829003601f168201915b5050505050905085565b60011515600460003373ffffffffffffffffffffffffffffffffffffffff1673ffffffffffffffffffffffffffffffffffffffff16815260200190815260200160002060009054906101000a900460ff16151514611636576040517f08c379a000000000000000000000000000000000000000000000000000000000815260040161162d90612bc5565b60405180910390fd5b600115156006600083815260200190815260200160002060009054906101000a900460ff1615151461169d576040517f08c379a000000000000000000000000000000000000000000000000000000000815260040161169490612b85565b60405180910390fd5b60008082815260200190815260200160002060050160009054906101000a900473ffffffffffffffffffffffffffffffffffffffff1673ffffffffffffffffffffffffffffffffffffffff166108fc349081150290604051600060405180830381858888f19350505050158015611718573d6000803e3d6000fd5b5060008082815260200190815260200160002060030154341015611771576040517f08c379a000000000000000000000000000000000000000000000000000000000815260040161176890612b45565b60405180910390fd5b3360008083815260200190815260200160002060050160006101000a81548173ffffffffffffffffffffffffffffffffffffffff021916908373ffffffffffffffffffffffffffffffffffffffff16021790555050565b600760009054906101000a900473ffffffffffffffffffffffffffffffffffffffff1673ffffffffffffffffffffffffffffffffffffffff163373ffffffffffffffffffffffffffffffffffffffff1614611858576040517f08c379a000000000000000000000000000000000000000000000000000000000815260040161184f90612ba5565b60405180910390fd5b6000600460008373ffffffffffffffffffffffffffffffffffffffff1673ffffffffffffffffffffffffffffffffffffffff16815260200190815260200160002060006101000a81548160ff02191690831515021790555050565b600760009054906101000a900473ffffffffffffffffffffffffffffffffffffffff1673ffffffffffffffffffffffffffffffffffffffff163373ffffffffffffffffffffffffffffffffffffffff1614611943576040517f08c379a000000000000000000000000000000000000000000000000000000000815260040161193a90612ba5565b60405180910390fd5b6001600560008373ffffffffffffffffffffffffffffffffffffffff1673ffffffffffffffffffffffffffffffffffffffff16815260200190815260200160002060006101000a81548160ff02191690831515021790555050565b60066020528060005260406000206000915054906101000a900460ff1681565b606060008083815260200190815260200160002060000180546119e090612d1c565b80601f0160208091040260200160405190810160405280929190818152602001828054611a0c90612d1c565b8015611a595780601f10611a2e57610100808354040283529160200191611a59565b820191906000526020600020905b815481529060010190602001808311611a3c57829003601f168201915b50505050509050919050565b60046020528060005260406000206000915054906101000a900460ff1681565b6001602052806000526040600020600091509050806000018054611aa890612d1c565b80601f0160208091040260200160405190810160405280929190818152602001828054611ad490612d1c565b8015611b215780601f10611af657610100808354040283529160200191611b21565b820191906000526020600020905b815481529060010190602001808311611b0457829003601f168201915b505050505090806001015490806002018054611b3c90612d1c565b80601f0160208091040260200160405190810160405280929190818152602001828054611b6890612d1c565b8015611bb55780601f10611b8a57610100808354040283529160200191611bb5565b820191906000526020600020905b815481529060010190602001808311611b9857829003601f168201915b505050505090806003018054611bca90612d1c565b80601f0160208091040260200160405190810160405280929190818152602001828054611bf690612d1c565b8015611c435780601f10611c1857610100808354040283529160200191611c43565b820191906000526020600020905b815481529060010190602001808311611c2657829003601f168201915b505050505090806004018054611c5890612d1c565b80601f0160208091040260200160405190810160405280929190818152602001828054611c8490612d1c565b8015611cd15780601f10611ca657610100808354040283529160200191611cd1565b820191906000526020600020905b815481529060010190602001808311611cb457829003601f168201915b5050505050905085565b600080600083815260200190815260200160002060050160009054906101000a900473ffffffffffffffffffffffffffffffffffffffff169050919050565b84600160008873ffffffffffffffffffffffffffffffffffffffff1673ffffffffffffffffffffffffffffffffffffffff1681526020019081526020016000206000019080519060200190611d709291906123f0565b5083600160008873ffffffffffffffffffffffffffffffffffffffff1673ffffffffffffffffffffffffffffffffffffffff1681526020019081526020016000206001018190555082600160008873ffffffffffffffffffffffffffffffffffffffff1673ffffffffffffffffffffffffffffffffffffffff1681526020019081526020016000206002019080519060200190611e0e9291906123f0565b5081600160008873ffffffffffffffffffffffffffffffffffffffff1673ffffffffffffffffffffffffffffffffffffffff1681526020019081526020016000206003019080519060200190611e659291906123f0565b5080600160008873ffffffffffffffffffffffffffffffffffffffff1673ffffffffffffffffffffffffffffffffffffffff1681526020019081526020016000206004019080519060200190611ebc9291906123f0565b50505050505050565b60036020528060005260406000206000915090508060000160009054906101000a900473ffffffffffffffffffffffffffffffffffffffff1690806001018054611f0e90612d1c565b80601f0160208091040260200160405190810160405280929190818152602001828054611f3a90612d1c565b8015611f875780601f10611f5c57610100808354040283529160200191611f87565b820191906000526020600020905b815481529060010190602001808311611f6a57829003601f168201915b505050505090806002015490806003018054611fa290612d1c565b80601f0160208091040260200160405190810160405280929190818152602001828054611fce90612d1c565b801561201b5780601f10611ff05761010080835404028352916020019161201b565b820191906000526020600020905b815481529060010190602001808311611ffe57829003601f168201915b5050505050905084565b84600260008873ffffffffffffffffffffffffffffffffffffffff1673ffffffffffffffffffffffffffffffffffffffff168152602001908152602001600020600001908051906020019061207b9291906123f0565b5083600260008873ffffffffffffffffffffffffffffffffffffffff1673ffffffffffffffffffffffffffffffffffffffff1681526020019081526020016000206001018190555082600260008873ffffffffffffffffffffffffffffffffffffffff1673ffffffffffffffffffffffffffffffffffffffff16815260200190815260200160002060020190805190602001906121199291906123f0565b5081600260008873ffffffffffffffffffffffffffffffffffffffff1673ffffffffffffffffffffffffffffffffffffffff16815260200190815260200160002060030190805190602001906121709291906123f0565b5080600260008873ffffffffffffffffffffffffffffffffffffffff1673ffffffffffffffffffffffffffffffffffffffff16815260200190815260200160002060040190805190602001906121c79291906123f0565b50505050505050565b8060008084815260200190815260200160002060050160006101000a81548173ffffffffffffffffffffffffffffffffffffffff021916908373ffffffffffffffffffffffffffffffffffffffff1602179055505050565b6040518060a0016040528086815260200185815260200184815260200183815260200182815250600160008873ffffffffffffffffffffffffffffffffffffffff1673ffffffffffffffffffffffffffffffffffffffff16815260200190815260200160002060008201518160000190805190602001906122aa9291906123f0565b506020820151816001015560408201518160020190805190602001906122d19291906123f0565b5060608201518160030190805190602001906122ee9291906123f0565b50608082015181600401908051906020019061230b9291906123f0565b5090505060011515600460003373ffffffffffffffffffffffffffffffffffffffff1673ffffffffffffffffffffffffffffffffffffffff16815260200190815260200160002060009054906101000a900460ff161515146123a2576040517f08c379a000000000000000000000000000000000000000000000000000000000815260040161239990612bc5565b60405180910390fd5b505050505050565b600760009054906101000a900473ffffffffffffffffffffffffffffffffffffffff1681565b60056020528060005260406000206000915054906101000a900460ff1681565b8280546123fc90612d1c565b90600052602060002090601f01602090048101928261241e5760008555612465565b82601f1061243757805160ff1916838001178555612465565b82800160010185558215612465579182015b82811115612464578251825591602001919060010190612449565b5b5090506124729190612476565b5090565b5b8082111561248f576000816000905550600101612477565b5090565b60006124a66124a184612c45565b612c20565b9050828152602081018484840111156124be57600080fd5b6124c9848285612cda565b509392505050565b6000813590506124e081612ee4565b92915050565b600082601f8301126124f757600080fd5b8135612507848260208601612493565b91505092915050565b60008135905061251f81612efb565b92915050565b60006020828403121561253757600080fd5b6000612545848285016124d1565b91505092915050565b6000806000806080858703121561256457600080fd5b6000612572878288016124d1565b945050602085013567ffffffffffffffff81111561258f57600080fd5b61259b878288016124e6565b93505060406125ac87828801612510565b925050606085013567ffffffffffffffff8111156125c957600080fd5b6125d5878288016124e6565b91505092959194509250565b60008060008060008060c087890312156125fa57600080fd5b600061260889828a016124d1565b965050602087013567ffffffffffffffff81111561262557600080fd5b61263189828a016124e6565b955050604061264289828a01612510565b945050606087013567ffffffffffffffff81111561265f57600080fd5b61266b89828a016124e6565b935050608087013567ffffffffffffffff81111561268857600080fd5b61269489828a016124e6565b92505060a087013567ffffffffffffffff8111156126b157600080fd5b6126bd89828a016124e6565b9150509295509295509295565b6000602082840312156126dc57600080fd5b60006126ea84828501612510565b91505092915050565b6000806040838503121561270657600080fd5b600061271485828601612510565b9250506020612725858286016124d1565b9150509250929050565b600080600080600080600060e0888a03121561274a57600080fd5b60006127588a828b01612510565b975050602088013567ffffffffffffffff81111561277557600080fd5b6127818a828b016124e6565b965050604088013567ffffffffffffffff81111561279e57600080fd5b6127aa8a828b016124e6565b955050606088013567ffffffffffffffff8111156127c757600080fd5b6127d38a828b016124e6565b94505060806127e48a828b01612510565b93505060a06127f58a828b01612510565b92505060c06128068a828b016124d1565b91505092959891949750929550565b61281e81612c92565b82525050565b61282d81612ca4565b82525050565b600061283e82612c76565b6128488185612c81565b9350612858818560208601612ce9565b61286181612ddd565b840191505092915050565b6000612879601383612c81565b915061288482612dee565b602082019050919050565b600061289c601283612c81565b91506128a782612e17565b602082019050919050565b60006128bf601283612c81565b91506128ca82612e40565b602082019050919050565b60006128e2601a83612c81565b91506128ed82612e69565b602082019050919050565b6000612905601383612c81565b915061291082612e92565b602082019050919050565b6000612928601483612c81565b915061293382612ebb565b602082019050919050565b61294781612cd0565b82525050565b60006020820190506129626000830184612815565b92915050565b600060808201905061297d6000830187612815565b818103602083015261298f8186612833565b905061299e604083018561293e565b81810360608301526129b08184612833565b905095945050505050565b60006020820190506129d06000830184612824565b92915050565b600060208201905081810360008301526129f08184612833565b905092915050565b600060a0820190508181036000830152612a128188612833565b90508181036020830152612a268187612833565b90508181036040830152612a3a8186612833565b9050612a49606083018561293e565b612a56608083018461293e565b9695505050505050565b600060c0820190508181036000830152612a7a8189612833565b90508181036020830152612a8e8188612833565b90508181036040830152612aa28187612833565b9050612ab1606083018661293e565b612abe608083018561293e565b612acb60a0830184612815565b979650505050505050565b600060a0820190508181036000830152612af08188612833565b9050612aff602083018761293e565b8181036040830152612b118186612833565b90508181036060830152612b258185612833565b90508181036080830152612b398184612833565b90509695505050505050565b60006020820190508181036000830152612b5e8161286c565b9050919050565b60006020820190508181036000830152612b7e8161288f565b9050919050565b60006020820190508181036000830152612b9e816128b2565b9050919050565b60006020820190508181036000830152612bbe816128d5565b9050919050565b60006020820190508181036000830152612bde816128f8565b9050919050565b60006020820190508181036000830152612bfe8161291b565b9050919050565b6000602082019050612c1a600083018461293e565b92915050565b6000612c2a612c3b565b9050612c368282612d4e565b919050565b6000604051905090565b600067ffffffffffffffff821115612c6057612c5f612dae565b5b612c6982612ddd565b9050602081019050919050565b600081519050919050565b600082825260208201905092915050565b6000612c9d82612cb0565b9050919050565b60008115159050919050565b600073ffffffffffffffffffffffffffffffffffffffff82169050919050565b6000819050919050565b82818337600083830152505050565b60005b83811015612d07578082015181840152602081019050612cec565b83811115612d16576000848401525b50505050565b60006002820490506001821680612d3457607f821691505b60208210811415612d4857612d47612d7f565b5b50919050565b612d5782612ddd565b810181811067ffffffffffffffff82111715612d7657612d75612dae565b5b80604052505050565b7f4e487b7100000000000000000000000000000000000000000000000000000000600052602260045260246000fd5b7f4e487b7100000000000000000000000000000000000000000000000000000000600052604160045260246000fd5b6000601f19601f8301169050919050565b7f706c6561736520706179206d6520657468657200000000000000000000000000600082015250565b7f706c6561736520766572696679204c616e640000000000000000000000000000600082015250565b7f706c6561736520766572696679206c616e640000000000000000000000000000600082015250565b7f796f7520617265206e6f74206c616e6420696e73706563746f72000000000000600082015250565b7f706c656173652076657269667920627579657200000000000000000000000000600082015250565b7f706c65617365207665726966792073656c6c6572000000000000000000000000600082015250565b612eed81612c92565b8114612ef857600080fd5b50565b612f0481612cd0565b8114612f0f57600080fd5b5056fea2646970667358221220f948fabb950820b94af4e41b95e4be26f7556c655779f9e941fd1b3d2c30f27564736f6c63430008010033",
  "linkReferences": {},
  "deployedLinkReferences": {}
}