{
  "_format": "hh-sol-artifact-1",
  "contractName": "MyNFT",
  "sourceName": "SmartContract/MyNFT.sol",
  "abi": [
    {
      "inputs": [
        {
          "internalType": "string",
          "name": "name",
          "type": "string"
        },
        {
          "internalType": "string",
          "name": "symbol",
          "type": "string"
        }
      ],
      "stateMutability": "nonpayable",
      "type": "constructor"
    },
    {
      "anonymous": false,
      "inputs": [
        {
          "indexed": true,
          "internalType": "address",
          "name": "owner",
          "type": "address"
        },
        {
          "indexed": true,
          "internalType": "address",
          "name": "approved",
          "type": "address"
        },
        {
          "indexed": true,
          "internalType": "uint256",
          "name": "tokenId",
          "type": "uint256"
        }
      ],
      "name": "Approval",
      "type": "event"
    },
    {
      "anonymous": false,
      "inputs": [
        {
          "indexed": true,
          "internalType": "address",
          "name": "owner",
          "type": "address"
        },
        {
          "indexed": true,
          "internalType": "address",
          "name": "operator",
          "type": "address"
        },
        {
          "indexed": false,
          "internalType": "bool",
          "name": "approved",
          "type": "bool"
        }
      ],
      "name": "ApprovalForAll",
      "type": "event"
    },
    {
      "anonymous": false,
      "inputs": [
        {
          "indexed": false,
          "internalType": "uint256",
          "name": "_fromTokenId",
          "type": "uint256"
        },
        {
          "indexed": false,
          "internalType": "uint256",
          "name": "_toTokenId",
          "type": "uint256"
        }
      ],
      "name": "BatchMetadataUpdate",
      "type": "event"
    },
    {
      "anonymous": false,
      "inputs": [
        {
          "indexed": false,
          "internalType": "uint256",
          "name": "_tokenId",
          "type": "uint256"
        }
      ],
      "name": "MetadataUpdate",
      "type": "event"
    },
    {
      "anonymous": false,
      "inputs": [
        {
          "indexed": true,
          "internalType": "address",
          "name": "previousOwner",
          "type": "address"
        },
        {
          "indexed": true,
          "internalType": "address",
          "name": "newOwner",
          "type": "address"
        }
      ],
      "name": "OwnershipTransferred",
      "type": "event"
    },
    {
      "anonymous": false,
      "inputs": [
        {
          "indexed": true,
          "internalType": "address",
          "name": "from",
          "type": "address"
        },
        {
          "indexed": true,
          "internalType": "address",
          "name": "to",
          "type": "address"
        },
        {
          "indexed": true,
          "internalType": "uint256",
          "name": "tokenId",
          "type": "uint256"
        }
      ],
      "name": "Transfer",
      "type": "event"
    },
    {
      "inputs": [],
      "name": "_tokenIds",
      "outputs": [
        {
          "internalType": "uint256",
          "name": "_value",
          "type": "uint256"
        }
      ],
      "stateMutability": "view",
      "type": "function"
    },
    {
      "inputs": [
        {
          "internalType": "address",
          "name": "to",
          "type": "address"
        },
        {
          "internalType": "uint256",
          "name": "tokenId",
          "type": "uint256"
        }
      ],
      "name": "approve",
      "outputs": [],
      "stateMutability": "nonpayable",
      "type": "function"
    },
    {
      "inputs": [
        {
          "internalType": "address",
          "name": "owner",
          "type": "address"
        }
      ],
      "name": "balanceOf",
      "outputs": [
        {
          "internalType": "uint256",
          "name": "",
          "type": "uint256"
        }
      ],
      "stateMutability": "view",
      "type": "function"
    },
    {
      "inputs": [
        {
          "internalType": "address",
          "name": "to",
          "type": "address"
        },
        {
          "internalType": "string",
          "name": "tokenURI",
          "type": "string"
        },
        {
          "internalType": "string",
          "name": "name",
          "type": "string"
        },
        {
          "internalType": "string",
          "name": "description",
          "type": "string"
        },
        {
          "internalType": "string",
          "name": "imageURI",
          "type": "string"
        }
      ],
      "name": "createNFT",
      "outputs": [
        {
          "internalType": "uint256",
          "name": "",
          "type": "uint256"
        }
      ],
      "stateMutability": "nonpayable",
      "type": "function"
    },
    {
      "inputs": [
        {
          "internalType": "uint256",
          "name": "tokenId",
          "type": "uint256"
        }
      ],
      "name": "getApproved",
      "outputs": [
        {
          "internalType": "address",
          "name": "",
          "type": "address"
        }
      ],
      "stateMutability": "view",
      "type": "function"
    },
    {
      "inputs": [
        {
          "internalType": "address",
          "name": "owner",
          "type": "address"
        },
        {
          "internalType": "address",
          "name": "operator",
          "type": "address"
        }
      ],
      "name": "isApprovedForAll",
      "outputs": [
        {
          "internalType": "bool",
          "name": "",
          "type": "bool"
        }
      ],
      "stateMutability": "view",
      "type": "function"
    },
    {
      "inputs": [
        {
          "internalType": "address",
          "name": "to",
          "type": "address"
        },
        {
          "internalType": "uint256",
          "name": "tokenId",
          "type": "uint256"
        }
      ],
      "name": "mint",
      "outputs": [],
      "stateMutability": "nonpayable",
      "type": "function"
    },
    {
      "inputs": [],
      "name": "name",
      "outputs": [
        {
          "internalType": "string",
          "name": "",
          "type": "string"
        }
      ],
      "stateMutability": "view",
      "type": "function"
    },
    {
      "inputs": [],
      "name": "owner",
      "outputs": [
        {
          "internalType": "address",
          "name": "",
          "type": "address"
        }
      ],
      "stateMutability": "view",
      "type": "function"
    },
    {
      "inputs": [
        {
          "internalType": "uint256",
          "name": "tokenId",
          "type": "uint256"
        }
      ],
      "name": "ownerOf",
      "outputs": [
        {
          "internalType": "address",
          "name": "",
          "type": "address"
        }
      ],
      "stateMutability": "view",
      "type": "function"
    },
    {
      "inputs": [],
      "name": "renounceOwnership",
      "outputs": [],
      "stateMutability": "nonpayable",
      "type": "function"
    },
    {
      "inputs": [
        {
          "internalType": "address",
          "name": "from",
          "type": "address"
        },
        {
          "internalType": "address",
          "name": "to",
          "type": "address"
        },
        {
          "internalType": "uint256",
          "name": "tokenId",
          "type": "uint256"
        }
      ],
      "name": "safeTransferFrom",
      "outputs": [],
      "stateMutability": "nonpayable",
      "type": "function"
    },
    {
      "inputs": [
        {
          "internalType": "address",
          "name": "from",
          "type": "address"
        },
        {
          "internalType": "address",
          "name": "to",
          "type": "address"
        },
        {
          "internalType": "uint256",
          "name": "tokenId",
          "type": "uint256"
        },
        {
          "internalType": "bytes",
          "name": "data",
          "type": "bytes"
        }
      ],
      "name": "safeTransferFrom",
      "outputs": [],
      "stateMutability": "nonpayable",
      "type": "function"
    },
    {
      "inputs": [
        {
          "internalType": "address",
          "name": "operator",
          "type": "address"
        },
        {
          "internalType": "bool",
          "name": "approved",
          "type": "bool"
        }
      ],
      "name": "setApprovalForAll",
      "outputs": [],
      "stateMutability": "nonpayable",
      "type": "function"
    },
    {
      "inputs": [
        {
          "internalType": "bytes4",
          "name": "interfaceId",
          "type": "bytes4"
        }
      ],
      "name": "supportsInterface",
      "outputs": [
        {
          "internalType": "bool",
          "name": "",
          "type": "bool"
        }
      ],
      "stateMutability": "view",
      "type": "function"
    },
    {
      "inputs": [],
      "name": "symbol",
      "outputs": [
        {
          "internalType": "string",
          "name": "",
          "type": "string"
        }
      ],
      "stateMutability": "view",
      "type": "function"
    },
    {
      "inputs": [
        {
          "internalType": "uint256",
          "name": "tokenId",
          "type": "uint256"
        }
      ],
      "name": "tokenMetadata",
      "outputs": [
        {
          "internalType": "string",
          "name": "name",
          "type": "string"
        },
        {
          "internalType": "string",
          "name": "description",
          "type": "string"
        },
        {
          "internalType": "string",
          "name": "imageURI",
          "type": "string"
        }
      ],
      "stateMutability": "view",
      "type": "function"
    },
    {
      "inputs": [
        {
          "internalType": "uint256",
          "name": "tokenId",
          "type": "uint256"
        }
      ],
      "name": "tokenURI",
      "outputs": [
        {
          "internalType": "string",
          "name": "",
          "type": "string"
        }
      ],
      "stateMutability": "view",
      "type": "function"
    },
    {
      "inputs": [
        {
          "internalType": "address",
          "name": "from",
          "type": "address"
        },
        {
          "internalType": "address",
          "name": "to",
          "type": "address"
        },
        {
          "internalType": "uint256",
          "name": "tokenId",
          "type": "uint256"
        }
      ],
      "name": "transferFrom",
      "outputs": [],
      "stateMutability": "nonpayable",
      "type": "function"
    },
    {
      "inputs": [
        {
          "internalType": "address",
          "name": "from",
          "type": "address"
        },
        {
          "internalType": "address",
          "name": "to",
          "type": "address"
        },
        {
          "internalType": "uint256",
          "name": "tokenId",
          "type": "uint256"
        }
      ],
      "name": "transferNFT",
      "outputs": [],
      "stateMutability": "nonpayable",
      "type": "function"
    },
    {
      "inputs": [
        {
          "internalType": "address",
          "name": "newOwner",
          "type": "address"
        }
      ],
      "name": "transferOwnership",
      "outputs": [],
      "stateMutability": "nonpayable",
      "type": "function"
    }
  ],
  "bytecode": "0x60806040523480156200001157600080fd5b50604051620036f7380380620036f7833981810160405281019062000037919062000285565b818181600090805190602001906200005192919062000163565b5080600190805190602001906200006a92919062000163565b5050506200008d620000816200009560201b60201c565b6200009d60201b60201c565b505062000468565b600033905090565b6000600760009054906101000a900473ffffffffffffffffffffffffffffffffffffffff16905081600760006101000a81548173ffffffffffffffffffffffffffffffffffffffff021916908373ffffffffffffffffffffffffffffffffffffffff1602179055508173ffffffffffffffffffffffffffffffffffffffff168173ffffffffffffffffffffffffffffffffffffffff167f8be0079c531659141344cd1fd0a4f28419497f9722a3daafe3b4186f6b6457e060405160405180910390a35050565b82805462000171906200038d565b90600052602060002090601f016020900481019282620001955760008555620001e1565b82601f10620001b057805160ff1916838001178555620001e1565b82800160010185558215620001e1579182015b82811115620001e0578251825591602001919060010190620001c3565b5b509050620001f09190620001f4565b5090565b5b808211156200020f576000816000905550600101620001f5565b5090565b60006200022a620002248462000321565b620002f8565b9050828152602081018484840111156200024357600080fd5b6200025084828562000357565b509392505050565b600082601f8301126200026a57600080fd5b81516200027c84826020860162000213565b91505092915050565b600080604083850312156200029957600080fd5b600083015167ffffffffffffffff811115620002b457600080fd5b620002c28582860162000258565b925050602083015167ffffffffffffffff811115620002e057600080fd5b620002ee8582860162000258565b9150509250929050565b60006200030462000317565b9050620003128282620003c3565b919050565b6000604051905090565b600067ffffffffffffffff8211156200033f576200033e62000428565b5b6200034a8262000457565b9050602081019050919050565b60005b83811015620003775780820151818401526020810190506200035a565b8381111562000387576000848401525b50505050565b60006002820490506001821680620003a657607f821691505b60208210811415620003bd57620003bc620003f9565b5b50919050565b620003ce8262000457565b810181811067ffffffffffffffff82111715620003f057620003ef62000428565b5b80604052505050565b7f4e487b7100000000000000000000000000000000000000000000000000000000600052602260045260246000fd5b7f4e487b7100000000000000000000000000000000000000000000000000000000600052604160045260246000fd5b6000601f19601f8301169050919050565b61327f80620004786000396000f3fe608060405234801561001057600080fd5b50600436106101375760003560e01c806369e9cae1116100b8578063a22cb4651161007c578063a22cb4651461034e578063aa46a4001461036a578063b88d4fde14610388578063c87b56dd146103a4578063e985e9c5146103d4578063f2fde38b1461040457610137565b806369e9cae1146102bc57806370a08231146102d8578063715018a6146103085780638da5cb5b1461031257806395d89b411461033057610137565b806340c10f19116100ff57806340c10f19146101f257806342842e0e1461020e578063609ccb6a1461022a5780636352211e1461025a5780636914db601461028a57610137565b806301ffc9a71461013c57806306fdde031461016c578063081812fc1461018a578063095ea7b3146101ba57806323b872dd146101d6575b600080fd5b61015660048036038101906101519190612577565b610420565b604051610163919061295a565b60405180910390f35b610174610481565b6040516101819190612975565b60405180910390f35b6101a4600480360381019061019f91906125c9565b610513565b6040516101b191906128f3565b60405180910390f35b6101d460048036038101906101cf919061253b565b610559565b005b6101f060048036038101906101eb919061235e565b610671565b005b61020c6004803603810190610207919061253b565b6106d1565b005b6102286004803603810190610223919061235e565b6106e7565b005b610244600480360381019061023f9190612464565b610707565b6040516102519190612bc3565b60405180910390f35b610274600480360381019061026f91906125c9565b61074e565b60405161028191906128f3565b60405180910390f35b6102a4600480360381019061029f91906125c9565b6107d5565b6040516102b393929190612997565b60405180910390f35b6102d660048036038101906102d1919061235e565b6109cd565b005b6102f260048036038101906102ed91906122f9565b610a53565b6040516102ff9190612bc3565b60405180910390f35b610310610b0b565b005b61031a610b1f565b60405161032791906128f3565b60405180910390f35b610338610b49565b6040516103459190612975565b60405180910390f35b61036860048036038101906103639190612428565b610bdb565b005b610372610bf1565b60405161037f9190612bc3565b60405180910390f35b6103a2600480360381019061039d91906123ad565b610bfd565b005b6103be60048036038101906103b991906125c9565b610c5f565b6040516103cb9190612975565b60405180910390f35b6103ee60048036038101906103e99190612322565b610d72565b6040516103fb919061295a565b60405180910390f35b61041e600480360381019061041991906122f9565b610e06565b005b6000634906490660e01b7bffffffffffffffffffffffffffffffffffffffffffffffffffffffff1916827bffffffffffffffffffffffffffffffffffffffffffffffffffffffff1916148061047a575061047982610e8a565b5b9050919050565b60606000805461049090612d5e565b80601f01602080910402602001604051908101604052809291908181526020018280546104bc90612d5e565b80156105095780601f106104de57610100808354040283529160200191610509565b820191906000526020600020905b8154815290600101906020018083116104ec57829003601f168201915b5050505050905090565b600061051e82610f6c565b6004600083815260200190815260200160002060009054906101000a900473ffffffffffffffffffffffffffffffffffffffff169050919050565b60006105648261074e565b90508073ffffffffffffffffffffffffffffffffffffffff168373ffffffffffffffffffffffffffffffffffffffff1614156105d5576040517f08c379a00000000000000000000000000000000000000000000000000000000081526004016105cc90612b83565b60405180910390fd5b8073ffffffffffffffffffffffffffffffffffffffff166105f4610fb7565b73ffffffffffffffffffffffffffffffffffffffff16148061062357506106228161061d610fb7565b610d72565b5b610662576040517f08c379a000000000000000000000000000000000000000000000000000000000815260040161065990612ba3565b60405180910390fd5b61066c8383610fbf565b505050565b61068261067c610fb7565b82611078565b6106c1576040517f08c379a00000000000000000000000000000000000000000000000000000000081526004016106b8906129e3565b60405180910390fd5b6106cc83838361110d565b505050565b6106d9611407565b6106e38282611485565b5050565b61070283838360405180602001604052806000815250610bfd565b505050565b600061071360086116a3565b600061071f60086116b9565b905061072b8782611485565b61073581876116c7565b61074181868686611772565b8091505095945050505050565b60008061075a83611806565b9050600073ffffffffffffffffffffffffffffffffffffffff168173ffffffffffffffffffffffffffffffffffffffff1614156107cc576040517f08c379a00000000000000000000000000000000000000000000000000000000081526004016107c390612b63565b60405180910390fd5b80915050919050565b606080606060096000858152602001908152602001600020600001600960008681526020019081526020016000206001016009600087815260200190815260200160002060020182805461082890612d5e565b80601f016020809104026020016040519081016040528092919081815260200182805461085490612d5e565b80156108a15780601f10610876576101008083540402835291602001916108a1565b820191906000526020600020905b81548152906001019060200180831161088457829003601f168201915b505050505092508180546108b490612d5e565b80601f01602080910402602001604051908101604052809291908181526020018280546108e090612d5e565b801561092d5780601f106109025761010080835404028352916020019161092d565b820191906000526020600020905b81548152906001019060200180831161091057829003601f168201915b5050505050915080805461094090612d5e565b80601f016020809104026020016040519081016040528092919081815260200182805461096c90612d5e565b80156109b95780601f1061098e576101008083540402835291602001916109b9565b820191906000526020600020905b81548152906001019060200180831161099c57829003601f168201915b505050505090509250925092509193909250565b8273ffffffffffffffffffffffffffffffffffffffff166109ed8261074e565b73ffffffffffffffffffffffffffffffffffffffff1614610a43576040517f08c379a0000000000000000000000000000000000000000000000000000000008152600401610a3a90612a83565b60405180910390fd5b610a4e8383836106e7565b505050565b60008073ffffffffffffffffffffffffffffffffffffffff168273ffffffffffffffffffffffffffffffffffffffff161415610ac4576040517f08c379a0000000000000000000000000000000000000000000000000000000008152600401610abb90612ae3565b60405180910390fd5b600360008373ffffffffffffffffffffffffffffffffffffffff1673ffffffffffffffffffffffffffffffffffffffff168152602001908152602001600020549050919050565b610b13611407565b610b1d6000611843565b565b6000600760009054906101000a900473ffffffffffffffffffffffffffffffffffffffff16905090565b606060018054610b5890612d5e565b80601f0160208091040260200160405190810160405280929190818152602001828054610b8490612d5e565b8015610bd15780601f10610ba657610100808354040283529160200191610bd1565b820191906000526020600020905b815481529060010190602001808311610bb457829003601f168201915b5050505050905090565b610bed610be6610fb7565b8383611909565b5050565b60088060000154905081565b610c0e610c08610fb7565b83611078565b610c4d576040517f08c379a0000000000000000000000000000000000000000000000000000000008152600401610c44906129e3565b60405180910390fd5b610c5984848484611a76565b50505050565b6060610c6a82610f6c565b6000600660008481526020019081526020016000208054610c8a90612d5e565b80601f0160208091040260200160405190810160405280929190818152602001828054610cb690612d5e565b8015610d035780601f10610cd857610100808354040283529160200191610d03565b820191906000526020600020905b815481529060010190602001808311610ce657829003601f168201915b505050505090506000610d14611ad2565b9050600081511415610d2a578192505050610d6d565b600082511115610d5f578082604051602001610d479291906128cf565b60405160208183030381529060405292505050610d6d565b610d6884611ae9565b925050505b919050565b6000600560008473ffffffffffffffffffffffffffffffffffffffff1673ffffffffffffffffffffffffffffffffffffffff16815260200190815260200160002060008373ffffffffffffffffffffffffffffffffffffffff1673ffffffffffffffffffffffffffffffffffffffff16815260200190815260200160002060009054906101000a900460ff16905092915050565b610e0e611407565b600073ffffffffffffffffffffffffffffffffffffffff168173ffffffffffffffffffffffffffffffffffffffff161415610e7e576040517f08c379a0000000000000000000000000000000000000000000000000000000008152600401610e7590612a23565b60405180910390fd5b610e8781611843565b50565b60007f80ac58cd000000000000000000000000000000000000000000000000000000007bffffffffffffffffffffffffffffffffffffffffffffffffffffffff1916827bffffffffffffffffffffffffffffffffffffffffffffffffffffffff19161480610f5557507f5b5e139f000000000000000000000000000000000000000000000000000000007bffffffffffffffffffffffffffffffffffffffffffffffffffffffff1916827bffffffffffffffffffffffffffffffffffffffffffffffffffffffff1916145b80610f655750610f6482611b51565b5b9050919050565b610f7581611bbb565b610fb4576040517f08c379a0000000000000000000000000000000000000000000000000000000008152600401610fab90612b63565b60405180910390fd5b50565b600033905090565b816004600083815260200190815260200160002060006101000a81548173ffffffffffffffffffffffffffffffffffffffff021916908373ffffffffffffffffffffffffffffffffffffffff160217905550808273ffffffffffffffffffffffffffffffffffffffff166110328361074e565b73ffffffffffffffffffffffffffffffffffffffff167f8c5be1e5ebec7d5bd14f71427d1e84f3dd0314c0f7b2291e5b200ac8c7c3b92560405160405180910390a45050565b6000806110848361074e565b90508073ffffffffffffffffffffffffffffffffffffffff168473ffffffffffffffffffffffffffffffffffffffff1614806110c657506110c58185610d72565b5b8061110457508373ffffffffffffffffffffffffffffffffffffffff166110ec84610513565b73ffffffffffffffffffffffffffffffffffffffff16145b91505092915050565b8273ffffffffffffffffffffffffffffffffffffffff1661112d8261074e565b73ffffffffffffffffffffffffffffffffffffffff1614611183576040517f08c379a000000000000000000000000000000000000000000000000000000000815260040161117a90612a43565b60405180910390fd5b600073ffffffffffffffffffffffffffffffffffffffff168273ffffffffffffffffffffffffffffffffffffffff1614156111f3576040517f08c379a00000000000000000000000000000000000000000000000000000000081526004016111ea90612aa3565b60405180910390fd5b6112008383836001611bfc565b8273ffffffffffffffffffffffffffffffffffffffff166112208261074e565b73ffffffffffffffffffffffffffffffffffffffff1614611276576040517f08c379a000000000000000000000000000000000000000000000000000000000815260040161126d90612a43565b60405180910390fd5b6004600082815260200190815260200160002060006101000a81549073ffffffffffffffffffffffffffffffffffffffff02191690556001600360008573ffffffffffffffffffffffffffffffffffffffff1673ffffffffffffffffffffffffffffffffffffffff168152602001908152602001600020600082825403925050819055506001600360008473ffffffffffffffffffffffffffffffffffffffff1673ffffffffffffffffffffffffffffffffffffffff16815260200190815260200160002060008282540192505081905550816002600083815260200190815260200160002060006101000a81548173ffffffffffffffffffffffffffffffffffffffff021916908373ffffffffffffffffffffffffffffffffffffffff160217905550808273ffffffffffffffffffffffffffffffffffffffff168473ffffffffffffffffffffffffffffffffffffffff167fddf252ad1be2c89b69c2b068fc378daa952ba7f163c4a11628f55a4df523b3ef60405160405180910390a46114028383836001611c02565b505050565b61140f610fb7565b73ffffffffffffffffffffffffffffffffffffffff1661142d610b1f565b73ffffffffffffffffffffffffffffffffffffffff1614611483576040517f08c379a000000000000000000000000000000000000000000000000000000000815260040161147a90612b43565b60405180910390fd5b565b600073ffffffffffffffffffffffffffffffffffffffff168273ffffffffffffffffffffffffffffffffffffffff1614156114f5576040517f08c379a00000000000000000000000000000000000000000000000000000000081526004016114ec90612b23565b60405180910390fd5b6114fe81611bbb565b1561153e576040517f08c379a000000000000000000000000000000000000000000000000000000000815260040161153590612a63565b60405180910390fd5b61154c600083836001611bfc565b61155581611bbb565b15611595576040517f08c379a000000000000000000000000000000000000000000000000000000000815260040161158c90612a63565b60405180910390fd5b6001600360008473ffffffffffffffffffffffffffffffffffffffff1673ffffffffffffffffffffffffffffffffffffffff16815260200190815260200160002060008282540192505081905550816002600083815260200190815260200160002060006101000a81548173ffffffffffffffffffffffffffffffffffffffff021916908373ffffffffffffffffffffffffffffffffffffffff160217905550808273ffffffffffffffffffffffffffffffffffffffff16600073ffffffffffffffffffffffffffffffffffffffff167fddf252ad1be2c89b69c2b068fc378daa952ba7f163c4a11628f55a4df523b3ef60405160405180910390a461169f600083836001611c02565b5050565b6001816000016000828254019250508190555050565b600081600001549050919050565b6116d082611bbb565b61170f576040517f08c379a000000000000000000000000000000000000000000000000000000000815260040161170690612b03565b60405180910390fd5b8060066000848152602001908152602001600020908051906020019061173692919061211d565b507ff8e1a15aba9398e019f0b49df1a4fde98ee17ae345cb5f6b5e2c27f5033e8ce7826040516117669190612bc3565b60405180910390a15050565b60006040518060600160405280858152602001848152602001838152509050806009600087815260200190815260200160002060008201518160000190805190602001906117c192919061211d565b5060208201518160010190805190602001906117de92919061211d565b5060408201518160020190805190602001906117fb92919061211d565b509050505050505050565b60006002600083815260200190815260200160002060009054906101000a900473ffffffffffffffffffffffffffffffffffffffff169050919050565b6000600760009054906101000a900473ffffffffffffffffffffffffffffffffffffffff16905081600760006101000a81548173ffffffffffffffffffffffffffffffffffffffff021916908373ffffffffffffffffffffffffffffffffffffffff1602179055508173ffffffffffffffffffffffffffffffffffffffff168173ffffffffffffffffffffffffffffffffffffffff167f8be0079c531659141344cd1fd0a4f28419497f9722a3daafe3b4186f6b6457e060405160405180910390a35050565b8173ffffffffffffffffffffffffffffffffffffffff168373ffffffffffffffffffffffffffffffffffffffff161415611978576040517f08c379a000000000000000000000000000000000000000000000000000000000815260040161196f90612ac3565b60405180910390fd5b80600560008573ffffffffffffffffffffffffffffffffffffffff1673ffffffffffffffffffffffffffffffffffffffff16815260200190815260200160002060008473ffffffffffffffffffffffffffffffffffffffff1673ffffffffffffffffffffffffffffffffffffffff16815260200190815260200160002060006101000a81548160ff0219169083151502179055508173ffffffffffffffffffffffffffffffffffffffff168373ffffffffffffffffffffffffffffffffffffffff167f17307eab39ab6107e8899845ad3d59bd9653f200f220920489ca2b5937696c3183604051611a69919061295a565b60405180910390a3505050565b611a8184848461110d565b611a8d84848484611c08565b611acc576040517f08c379a0000000000000000000000000000000000000000000000000000000008152600401611ac390612a03565b60405180910390fd5b50505050565b606060405180602001604052806000815250905090565b6060611af482610f6c565b6000611afe611ad2565b90506000815111611b1e5760405180602001604052806000815250611b49565b80611b2884611d9f565b604051602001611b399291906128cf565b6040516020818303038152906040525b915050919050565b60007f01ffc9a7000000000000000000000000000000000000000000000000000000007bffffffffffffffffffffffffffffffffffffffffffffffffffffffff1916827bffffffffffffffffffffffffffffffffffffffffffffffffffffffff1916149050919050565b60008073ffffffffffffffffffffffffffffffffffffffff16611bdd83611806565b73ffffffffffffffffffffffffffffffffffffffff1614159050919050565b50505050565b50505050565b6000611c298473ffffffffffffffffffffffffffffffffffffffff16611ec3565b15611d92578373ffffffffffffffffffffffffffffffffffffffff1663150b7a02611c52610fb7565b8786866040518563ffffffff1660e01b8152600401611c74949392919061290e565b602060405180830381600087803b158015611c8e57600080fd5b505af1925050508015611cbf57506040513d601f19601f82011682018060405250810190611cbc91906125a0565b60015b611d42573d8060008114611cef576040519150601f19603f3d011682016040523d82523d6000602084013e611cf4565b606091505b50600081511415611d3a576040517f08c379a0000000000000000000000000000000000000000000000000000000008152600401611d3190612a03565b60405180910390fd5b805181602001fd5b63150b7a0260e01b7bffffffffffffffffffffffffffffffffffffffffffffffffffffffff1916817bffffffffffffffffffffffffffffffffffffffffffffffffffffffff191614915050611d97565b600190505b949350505050565b606060006001611dae84611ee6565b01905060008167ffffffffffffffff811115611df3577f4e487b7100000000000000000000000000000000000000000000000000000000600052604160045260246000fd5b6040519080825280601f01601f191660200182016040528015611e255781602001600182028036833780820191505090505b509050600082602001820190505b600115611eb8578080600190039150507f3031323334353637383961626364656600000000000000000000000000000000600a86061a8153600a8581611ea2577f4e487b7100000000000000000000000000000000000000000000000000000000600052601260045260246000fd5b0494506000851415611eb357611eb8565b611e33565b819350505050919050565b6000808273ffffffffffffffffffffffffffffffffffffffff163b119050919050565b600080600090507a184f03e93ff9f4daa797ed6e38ed64bf6a1f0100000000000000008310611f6a577a184f03e93ff9f4daa797ed6e38ed64bf6a1f0100000000000000008381611f60577f4e487b7100000000000000000000000000000000000000000000000000000000600052601260045260246000fd5b0492506040810190505b6d04ee2d6d415b85acef81000000008310611fcd576d04ee2d6d415b85acef81000000008381611fc3577f4e487b7100000000000000000000000000000000000000000000000000000000600052601260045260246000fd5b0492506020810190505b662386f26fc10000831061202257662386f26fc100008381612018577f4e487b7100000000000000000000000000000000000000000000000000000000600052601260045260246000fd5b0492506010810190505b6305f5e1008310612071576305f5e1008381612067577f4e487b7100000000000000000000000000000000000000000000000000000000600052601260045260246000fd5b0492506008810190505b61271083106120bc5761271083816120b2577f4e487b7100000000000000000000000000000000000000000000000000000000600052601260045260246000fd5b0492506004810190505b6064831061210557606483816120fb577f4e487b7100000000000000000000000000000000000000000000000000000000600052601260045260246000fd5b0492506002810190505b600a8310612114576001810190505b80915050919050565b82805461212990612d5e565b90600052602060002090601f01602090048101928261214b5760008555612192565b82601f1061216457805160ff1916838001178555612192565b82800160010185558215612192579182015b82811115612191578251825591602001919060010190612176565b5b50905061219f91906121a3565b5090565b5b808211156121bc5760008160009055506001016121a4565b5090565b60006121d36121ce84612c03565b612bde565b9050828152602081018484840111156121eb57600080fd5b6121f6848285612d1c565b509392505050565b600061221161220c84612c34565b612bde565b90508281526020810184848401111561222957600080fd5b612234848285612d1c565b509392505050565b60008135905061224b816131ed565b92915050565b60008135905061226081613204565b92915050565b6000813590506122758161321b565b92915050565b60008151905061228a8161321b565b92915050565b600082601f8301126122a157600080fd5b81356122b18482602086016121c0565b91505092915050565b600082601f8301126122cb57600080fd5b81356122db8482602086016121fe565b91505092915050565b6000813590506122f381613232565b92915050565b60006020828403121561230b57600080fd5b60006123198482850161223c565b91505092915050565b6000806040838503121561233557600080fd5b60006123438582860161223c565b92505060206123548582860161223c565b9150509250929050565b60008060006060848603121561237357600080fd5b60006123818682870161223c565b93505060206123928682870161223c565b92505060406123a3868287016122e4565b9150509250925092565b600080600080608085870312156123c357600080fd5b60006123d18782880161223c565b94505060206123e28782880161223c565b93505060406123f3878288016122e4565b925050606085013567ffffffffffffffff81111561241057600080fd5b61241c87828801612290565b91505092959194509250565b6000806040838503121561243b57600080fd5b60006124498582860161223c565b925050602061245a85828601612251565b9150509250929050565b600080600080600060a0868803121561247c57600080fd5b600061248a8882890161223c565b955050602086013567ffffffffffffffff8111156124a757600080fd5b6124b3888289016122ba565b945050604086013567ffffffffffffffff8111156124d057600080fd5b6124dc888289016122ba565b935050606086013567ffffffffffffffff8111156124f957600080fd5b612505888289016122ba565b925050608086013567ffffffffffffffff81111561252257600080fd5b61252e888289016122ba565b9150509295509295909350565b6000806040838503121561254e57600080fd5b600061255c8582860161223c565b925050602061256d858286016122e4565b9150509250929050565b60006020828403121561258957600080fd5b600061259784828501612266565b91505092915050565b6000602082840312156125b257600080fd5b60006125c08482850161227b565b91505092915050565b6000602082840312156125db57600080fd5b60006125e9848285016122e4565b91505092915050565b6125fb81612ca8565b82525050565b61260a81612cba565b82525050565b600061261b82612c65565b6126258185612c7b565b9350612635818560208601612d2b565b61263e81612e1f565b840191505092915050565b600061265482612c70565b61265e8185612c8c565b935061266e818560208601612d2b565b61267781612e1f565b840191505092915050565b600061268d82612c70565b6126978185612c9d565b93506126a7818560208601612d2b565b80840191505092915050565b60006126c0602d83612c8c565b91506126cb82612e30565b604082019050919050565b60006126e3603283612c8c565b91506126ee82612e7f565b604082019050919050565b6000612706602683612c8c565b915061271182612ece565b604082019050919050565b6000612729602583612c8c565b915061273482612f1d565b604082019050919050565b600061274c601c83612c8c565b915061275782612f6c565b602082019050919050565b600061276f601d83612c8c565b915061277a82612f95565b602082019050919050565b6000612792602483612c8c565b915061279d82612fbe565b604082019050919050565b60006127b5601983612c8c565b91506127c08261300d565b602082019050919050565b60006127d8602983612c8c565b91506127e382613036565b604082019050919050565b60006127fb602e83612c8c565b915061280682613085565b604082019050919050565b600061281e602083612c8c565b9150612829826130d4565b602082019050919050565b6000612841602083612c8c565b915061284c826130fd565b602082019050919050565b6000612864601883612c8c565b915061286f82613126565b602082019050919050565b6000612887602183612c8c565b91506128928261314f565b604082019050919050565b60006128aa603d83612c8c565b91506128b58261319e565b604082019050919050565b6128c981612d12565b82525050565b60006128db8285612682565b91506128e78284612682565b91508190509392505050565b600060208201905061290860008301846125f2565b92915050565b600060808201905061292360008301876125f2565b61293060208301866125f2565b61293d60408301856128c0565b818103606083015261294f8184612610565b905095945050505050565b600060208201905061296f6000830184612601565b92915050565b6000602082019050818103600083015261298f8184612649565b905092915050565b600060608201905081810360008301526129b18186612649565b905081810360208301526129c58185612649565b905081810360408301526129d98184612649565b9050949350505050565b600060208201905081810360008301526129fc816126b3565b9050919050565b60006020820190508181036000830152612a1c816126d6565b9050919050565b60006020820190508181036000830152612a3c816126f9565b9050919050565b60006020820190508181036000830152612a5c8161271c565b9050919050565b60006020820190508181036000830152612a7c8161273f565b9050919050565b60006020820190508181036000830152612a9c81612762565b9050919050565b60006020820190508181036000830152612abc81612785565b9050919050565b60006020820190508181036000830152612adc816127a8565b9050919050565b60006020820190508181036000830152612afc816127cb565b9050919050565b60006020820190508181036000830152612b1c816127ee565b9050919050565b60006020820190508181036000830152612b3c81612811565b9050919050565b60006020820190508181036000830152612b5c81612834565b9050919050565b60006020820190508181036000830152612b7c81612857565b9050919050565b60006020820190508181036000830152612b9c8161287a565b9050919050565b60006020820190508181036000830152612bbc8161289d565b9050919050565b6000602082019050612bd860008301846128c0565b92915050565b6000612be8612bf9565b9050612bf48282612d90565b919050565b6000604051905090565b600067ffffffffffffffff821115612c1e57612c1d612df0565b5b612c2782612e1f565b9050602081019050919050565b600067ffffffffffffffff821115612c4f57612c4e612df0565b5b612c5882612e1f565b9050602081019050919050565b600081519050919050565b600081519050919050565b600082825260208201905092915050565b600082825260208201905092915050565b600081905092915050565b6000612cb382612cf2565b9050919050565b60008115159050919050565b60007fffffffff0000000000000000000000000000000000000000000000000000000082169050919050565b600073ffffffffffffffffffffffffffffffffffffffff82169050919050565b6000819050919050565b82818337600083830152505050565b60005b83811015612d49578082015181840152602081019050612d2e565b83811115612d58576000848401525b50505050565b60006002820490506001821680612d7657607f821691505b60208210811415612d8a57612d89612dc1565b5b50919050565b612d9982612e1f565b810181811067ffffffffffffffff82111715612db857612db7612df0565b5b80604052505050565b7f4e487b7100000000000000000000000000000000000000000000000000000000600052602260045260246000fd5b7f4e487b7100000000000000000000000000000000000000000000000000000000600052604160045260246000fd5b6000601f19601f8301169050919050565b7f4552433732313a2063616c6c6572206973206e6f7420746f6b656e206f776e6560008201527f72206f7220617070726f76656400000000000000000000000000000000000000602082015250565b7f4552433732313a207472616e7366657220746f206e6f6e20455243373231526560008201527f63656976657220696d706c656d656e7465720000000000000000000000000000602082015250565b7f4f776e61626c653a206e6577206f776e657220697320746865207a65726f206160008201527f6464726573730000000000000000000000000000000000000000000000000000602082015250565b7f4552433732313a207472616e736665722066726f6d20696e636f72726563742060008201527f6f776e6572000000000000000000000000000000000000000000000000000000602082015250565b7f4552433732313a20746f6b656e20616c7265616479206d696e74656400000000600082015250565b7f4e4654206e6f74206f776e65642062792066726f6d2061646472657373000000600082015250565b7f4552433732313a207472616e7366657220746f20746865207a65726f2061646460008201527f7265737300000000000000000000000000000000000000000000000000000000602082015250565b7f4552433732313a20617070726f766520746f2063616c6c657200000000000000600082015250565b7f4552433732313a2061646472657373207a65726f206973206e6f74206120766160008201527f6c6964206f776e65720000000000000000000000000000000000000000000000602082015250565b7f45524337323155524953746f726167653a2055524920736574206f66206e6f6e60008201527f6578697374656e7420746f6b656e000000000000000000000000000000000000602082015250565b7f4552433732313a206d696e7420746f20746865207a65726f2061646472657373600082015250565b7f4f776e61626c653a2063616c6c6572206973206e6f7420746865206f776e6572600082015250565b7f4552433732313a20696e76616c696420746f6b656e2049440000000000000000600082015250565b7f4552433732313a20617070726f76616c20746f2063757272656e74206f776e6560008201527f7200000000000000000000000000000000000000000000000000000000000000602082015250565b7f4552433732313a20617070726f76652063616c6c6572206973206e6f7420746f60008201527f6b656e206f776e6572206f7220617070726f76656420666f7220616c6c000000602082015250565b6131f681612ca8565b811461320157600080fd5b50565b61320d81612cba565b811461321857600080fd5b50565b61322481612cc6565b811461322f57600080fd5b50565b61323b81612d12565b811461324657600080fd5b5056fea2646970667358221220652b316bf8b4f5b9536d47f264c3c9d6e35fc7c379ba6205e82709db59775df264736f6c63430008010033",
  "linkReferences": {},
  "deployedLinkReferences": {}
}